:100000000C9434000C943E000C943E000C943E0082
:100010000C943E000C943E000C943E000C943E0068
:100020000C943E000C943E000C943E000C943E0058
:100030000C943E000C943E000C943E000C943E0048
:100040000C943E000C943E000C943E000C943E0038
:100050000C943E000C943E000C943E000C943E0028
:100060000C943E000C943E0011241FBECFEFD8E04C
:10007000DEBFCDBF0E9475000C94BF000C94000041
:10008000413041F0411105C0FC012081609562239F
:1000900060830895FC012081308126232327622B71
:1000A00060830895FC01408127E030E0261B310980
:1000B00081E090E001C0880F2A95EAF78423089533
:1000C000442359F0413009F00895FC01208130812A
:1000D00026232327622B60830895FC012081308131
:1000E0006095232362236083089541E067E084E202
:1000F00090E00E946000C0E0C83009F1CF5F41E0AD
:1001000062E085E290E00E9440002FEF81EE94E0F3
:10011000215080409040E1F700C0000040E062E0E4
:1001200085E290E00E9440002FEF81EE94E02150A4
:1001300080409040E1F700C00000C830F9F641E08F
:1001400064E085E290E00E9440002FEF81EE94E0B1
:10015000215080409040E1F700C0000040E064E0A2
:1001600085E290E00E9440002FEF81EE94E0215064
:1001700080409040E1F700C00000C0E0BFCFF8949D
:02018000FFCFAF
:00000001FF
